:1000000033C000004CC000004AC0000048C00000DF
:1000100046C0000044C0000042C000008BC1000088
:100020003EC000003CC000003AC00000E9C1000032
:10003000F2C1000034C0000032C00000D7C100008F
:100040002EC000002CC000002AC0000028C0000004
:1000500026C0000024C0000022C0000020C0000014
:100060001EC000001CC0000011241FBECFEFD8E04E
:10007000DEBFCDBF11E0A0E0B1E0EAE2F8E002C0EF
:1000800005900D92A430B107D9F721E0A4E0B1E0CA
:1000900001C01D92A433B207E1F7D8D1C4C3B0CFD9
:1000A0002F923F924F925F926F927F928F929F9288
:1000B000AF92BF92CF92DF92EF92FF920F931F9376
:1000C000CF93DF93CDB7DEB729970FB6F894DEBF95
:1000D0000FBECDBF998788879A01AB01FC01608173
:1000E000718182819381B5D16B017C01E885F985AD
:1000F000608B718B828B938B84A095A0A6A0B7A0F8
:10010000208531854285538560E070E080E89FE37B
:1001100009D2A501940124D39B01AC01C701B6010A
:100120001FD3E885F985208D318D428D538D92D175
:10013000162F072F89839D83E885F985548C458C7C
:10014000368C278C252D342D432D522DE7D1882335
:1001500024F4152D042D39822D82E885F985F0A12E
:10016000FE83E885F985F1A1FF83E885F98562A022
:1001700073A02E813F81462D572D612F702F8981CD
:100180009D81EAD2181624F41E810F8169827D8236
:10019000812F902FA981BD81E885F985808F918F6E
:1001A000A28FB38FA7019601612F702F8A2F9B2FEB
:1001B00051D169837A838B839C83A7019601E8855B
:1001C000F985648975898689978943D1E885F98598
:1001D0002485358546855785C3D2A5019401A2D1D2
:1001E0009B01AC0169817A818B819C8133D1E88547
:1001F000F9852481358146815781B2D2162F072F88
:10020000B82EA92EE885F985C48AD58AE68AF78AA8
:10021000262F372F482F592F652D742D832D922D82
:100220009BD2181624F0512E402E3B2C2A2C2E81C6
:100230003F81462D572D652D742D832D922D8CD207
:10024000181624F05E824F82632C722C8E819F815F
:10025000A62DB72DE885F98580A791A7A2A7B3A7FA
:1002600029960FB6F894DEBF0FBECDBFDF91CF91B8
:100270001F910F91FF90EF90DF90CF90BF90AF90C4
:100280009F908F907F906F905F904F903F902F90B6
:1002900008958AB1846F8AB9209A84B5836284BD37
:1002A0008EEF88BDEEE6F0E080818460808385B5C6
:1002B000816085BDE0E8F0E0808183608083E1E8D3
:1002C000F0E0808189618083EFE6F0E080818660E4
:1002D0008083809102019091030190938900809323
:1002E0008800809100019091010190938B00809390
:1002F0008A00E0EBF0E080818260808389EF809368
:10030000B300E0E7F0E0808182608083E1EBF0E021
:1003100080818460808378940895809178008091B2
:100320007900EAE7F0E0808180648083808186FD47
:10033000FDCF08951F920F920FB60F921124CF9206
:10034000DF92EF92FF922F933F934F935F936F93C0
:100350007F938F939F93AF93BF93EF93FF9380917E
:100360000601909107010196909307018093060181
:100370006091060170910701072E000C880B990B04
:100380003BD16B017C0120E030E04AE754E460910E
:100390002C0170912D0180912E0190912F01E0D1BF
:1003A0009B01AC01C701B601D7D1181654F4B5DFD3
:1003B000AB01BC0188E091E073DE1092070110925E
:1003C0000601FF91EF91BF91AF919F918F917F9126
:1003D0006F915F914F913F912F91FF90EF90DF9040
:1003E000CF900F900FBE0F901F9018951F920F92F5
:1003F0000FB60F9211240F900FBE0F901F901895FB
:100400001F920F920FB60F9211245E9A0F900FBE9B
:100410000F901F9018951F920F920FB60F921124F4
:100420005E980F900FBE0F901F9018958BB180694A
:100430008BB95A9828980895F9DF10920501109207
:1004400004011092010110920001089522DFF4DFEF
:10045000FFCF5058BB27AA270ED044C135D130F06A
:100460003AD120F031F49F3F11F41EF42AC10EF46A
:10047000E095E7FB20C1E92F46D180F3BA17620768
:1004800073078407950718F071F49EF55EC10EF4AA
:10049000E0950B2EBA2FA02D0B01B90190010C0194
:1004A000CA01A0011124FF27591B99F0593F50F4AC
:1004B000503E68F11A16F040A22F232F342F442704
:1004C000585FF3CF469537952795A795F0405395FC
:1004D000C9F77EF41F16BA0B620B730B840BBAF0CC
:1004E0009150A1F0FF0FBB1F661F771F881FC2F737
:1004F0000EC0BA0F621F731F841F48F4879577954B
:100500006795B795F7959E3F08F0B3CF9395880F01
:1005100008F09927EE0F979587950895A8D008F4CD
:1005200081E008950CD0DEC0D6D040F0CDD030F0C0
:1005300021F45F3F19F0BFC0511108C1C2C0E3D020
:1005400098F39923C9F35523B1F3951B550BBB279A
:10055000AA2762177307840738F09F5F5F4F220F47
:10056000331F441FAA1FA9F333D00E2E3AF0E0E840
:1005700030D091505040E695001CCAF729D0FE2F8C
:1005800027D0660F771F881FBB1F2617370748071E
:10059000AB07B0E809F0BB0B802DBF01FF279358D4
:1005A0005F4F2AF09E3F510568F085C0CFC05F3F86
:1005B000ECF3983EDCF3869577956795B795F795BC
:1005C0009F5FC9F7880F911D9695879597F90895B4
:1005D000E1E0660F771F881FBB1F62177307840750
:1005E000BA0720F0621B730B840BBA0BEE1F88F75F
:1005F000E0950895E89409C097FB3EF490958095A6
:10060000709561957F4F8F4F9F4F9923A9F0F92FD8
:1006100096E9BB279395F695879577956795B79556
:10062000F111F8CFFAF4BB0F11F460FF1BC06F5F3C
:100630007F4F8F4F9F4F16C0882311F096E911C04E
:10064000772321F09EE8872F762F05C0662371F06F
:1006500096E8862F70E060E02AF09A95660F771F83
:10066000881FDAF7880F9695879597F90895990F5F
:100670000008550FAA0BE0E8FEEF16161706E8076C
:10068000F907C0F012161306E407F50798F0621B8D
:10069000730B840B950B39F40A2661F0232B242B62
:1006A000252B21F408950A2609F4A140A6958FEF81
:1006B000811D811D089597F99F6780E870E060E0D3
:1006C00008959FEF80EC089500240A9416161706EB
:1006D00018060906089500240A9412161306140633
:1006E00005060895092E0394000C11F4882352F096
:1006F000BB0F40F4BF2B11F460FF04C06F5F7F4F4E
:100700008F4F9F4F089557FD9058440F551F59F034
:100710005F3F71F04795880F97FB991F61F09F3FEE
:1007200079F087950895121613061406551FF2CF17
:100730004695F1DF08C0161617061806991FF1CF67
:1007400086957105610508940895E894BB2766278E
:100750007727CB0197F908958ADF08F48FEF089582
:100760000BD0C0CFB1DF28F0B6DF18F0952309F029
:10077000A2CFA7CF1124EACFC6DFA0F3959FD1F374
:10078000950F50E0551F629FF001729FBB27F00D3F
:10079000B11D639FAA27F00DB11DAA1F649F662794
:1007A000B00DA11D661F829F2227B00DA11D621FE3
:1007B000739FB00DA11D621F839FA00D611D221F9D
:1007C000749F3327A00D611D231F849F600D211D81
:1007D000822F762F6A2F11249F5750408AF0E1F024
:1007E00088234AF0EE0FFF1FBB1F661F771F881F6D
:1007F00091505040A9F79E3F510570F05CCFA6CFB5
:100800005F3FECF3983EDCF3869577956795B79557
:10081000F795E7959F5FC1F7FE2B880F911D969581
:0A082000879597F90895F894FFCF2B
:04082A003D013F014C
:00000001FF
