S0150000526564626F7420526163696E672E737265633B
S113000033C000004CC000004AC0000048C00000DB
S113001046C0000044C0000042C0000010C30000FD
S113002023C300003CC000003AC0000098C1000097
S1130030FBC2000034C00000E3C2000030C0000076
S11300402EC000002CC000002AC0000028C0000000
S113005026C0000024C0000022C0000020C0000010
S11300601EC000001CC0000011241FBECFEFD8E04A
S1130070DEBFCDBF11E0A0E0B1E0EAE5FAE002C0E6
S113008005900D92A032B107D9F721E0A0E2B1E0CA
S113009001C01D92A635B207E1F7F1D2DCC4B0CF9E
S11300A08F929F92AF92BF92CF92DF92EF92FF9284
S11300B00F931F93CF93DF93CDB7DEB7FC0140833B
S11300C05183628373830483158326833783C086B5
S11300D0D186E286F38684869586A686B786108ABC
S11300E0118A128A138A148A158A168A178A8B8DA2
S11300F09C8DAD8DBE8D808F918FA28FB38F8F8598
S11301009889A989BA89848F958FA68FB78F8B898F
S11301109C89AD89BE8980A391A3A2A3B3A38F892F
S1130120988DA98DBA8D84A395A3A6A3B7A310A671
S113013011A612A613A6CF01DF91CF911F910F91A3
S1130140FF90EF90DF90CF90BF90AF909F908F90F3
S113015008952F923F924F925F926F927F928F9267
S11301609F92AF92BF92CF92DF92EF92FF920F9342
S11301701F93CF93DF93CDB7DEB729970FB6F894CB
S1130180DEBF0FBECDBF998788879A01AB01FC0102
S1130190608171818281938174D26B017C01E885D5
S11301A0F985608B718B828B938B84A095A0A6A01C
S11301B0B7A0208531854285538560E070E080E8F2
S11301C09FE3C8D2A5019401E3D39B01AC01C7010D
S11301D0B601DED3E885F985208D318D428D538DAE
S11301E051D2162F072F89839D83E885F985548C76
S11301F0458C368C278C252D342D432D522DA6D29B
S1130200882324F4152D042D39822D82E885F9855F
S1130210F0A1FE83E885F985F1A1FF83E885F985DE
S113022062A073A02E813F81462D572D612F702F20
S113023089819D81A9D3181624F41E810F816982B6
S11302407D82812F902FA981BD81E885F985808FDA
S1130250918FA28FB38FA7019601612F702F8A2FE0
S11302609B2F10D269837A838B839C83A701960189
S1130270E885F985648975898689978902D2E88534
S1130280F985248535854685578582D3A501940152
S113029061D29B01AC0169817A818B819C81F2D10D
S11302A0E885F985248135814681578171D3162FDC
S11302B0072FB82EA92EE885F985C48AD58AE68A3F
S11302C0F78A262F372F482F592F652D742D832D0C
S11302D0922D5AD3181624F0512E402E3B2C2A2C42
S11302E02E813F81462D572D652D742D832D922D02
S11302F04BD3181624F05E824F82632C722C8E81AD
S11303009F81A62DB72DE885F98580A791A7A2A77F
S1130310B3A729960FB6F894DEBF0FBECDBFDF9109
S1130320CF911F910F91FF90EF90DF90CF90BF90EE
S1130330AF909F908F907F906F905F904F903F9081
S11303402F9008958091780080917900EAE7F0E099
S1130350808180648083808186FDFDCF08951F9213
S11303600F920FB60F921124CF92DF92EF92FF9269
S11303702F933F934F935F936F937F938F939F93A9
S1130380AF93BF93EF93FF9380912801909129013C
S1130390019690932901809328016091280170911E
S11303A02901072E000C880B990B3ED26B017C01AE
S11303B020E030E04AE754E460914E0170914F012F
S11303C08091500190915101E3D29B01AC01C7018E
S11303D0B601DAD2181654F4B5DFAB01BC018AE2D7
S11303E091E0B7DE1092290110922801FF91EF915C
S11303F0BF91AF919F918F917F916F915F914F9139
S11304003F912F91FF90EF90DF90CF900F900FBE10
S11304100F901F901895ECE7F0E086E080838081D0
S11304208660808386E880937A000895E0E8F0E0AF
S113043080818068808389EF90E090938900809325
S11304408800EFE6F0E0808182608083E1E8F0E0FC
S113045080818B60808308954F925F926F927F9228
S11304608F929F92AF92BF92CF92DF92EF92FF92C0
S11304700F931F93CF93DF93CDB7DEB7E4970FB6F7
S1130480F894DEBF0FBECDBF8AB1846F8AB984B53C
S11304908B6284BD809102019091030187BD80919C
S11304A022019091230188BDEEE6F0E08081866010
S11304B0808395E095BDE0EBF0E080818B628083E2
S11304C020910001309101012093B300209120017B
S11304D0309121012093B400E0E7F0E08081866050
S11304E080839093B100A2DF96DF87E28AB94090BF
S11304F0240150902501609026017090270180917D
S1130500040190910501A0910601B09107018DA706
S11305109EA7AFA7B8AB8091080190910901A09163
S11305200A01B0910B0189AB9AABABABBCAB809128
S11305300C0190910D01A0910E01B0910F018090DA
S1130540100190901101A0901201B0901301C0907D
S11305501401D0901501E0901601F090170100915C
S113056018011091190120911A0130911B01409139
S11305701C0150911D0160911E0170911F017F9219
S11305806F925F924F92E8A9EF93EFA5EF93EEA5D8
S1130590EF93EDA5EF93ECA9EF93EBA9EF93EAA901
S11305A0EF93E9A9EF93BF93AF939F938F93CE01FA
S11305B0019676DD8CE2FE013196AAE2B1E001906B
S11305C00D928A95E1F778940FB6F894DEBF0FBECA
S11305D0CDBFE4960FB6F894DEBF0FBECDBFDF915A
S11305E0CF911F910F91FF90EF90DF90CF90BF902C
S11305F0AF909F908F907F906F905F904F900895F1
S11306001F920F920FB60F9211248F939F93809194
S113061022019091230188BD5D9A9F918F910F9043
S11306200FBE0F901F9018951F920F920FB60F9246
S113063011245D980F900FBE0F901F9018951F9274
S11306400F920FB60F9211248F939F9380912001E4
S1130650909121018093B4005E9A9F918F910F90A5
S11306600FBE0F901F9018951F920F920FB60F9206
S113067011245E980F900FBE0F901F901895ECDE1A
S1130680FFCF5058BB27AA270ED044C135D130F034
S11306903AD120F031F49F3F11F41EF42AC10EF434
S11306A0E095E7FB20C1E92F46D180F3BA17620732
S11306B073078407950718F071F49EF55EC10EF474
S11306C0E0950B2EBA2FA02D0B01B90190010C015E
S11306D0CA01A0011124FF27591B99F0593F50F476
S11306E0503E68F11A16F040A22F232F342F4427CE
S11306F0585FF3CF469537952795A795F0405395C6
S1130700C9F77EF41F16BA0B620B730B840BBAF095
S11307109150A1F0FF0FBB1F661F771F881FC2F700
S11307200EC0BA0F621F731F841F48F48795779514
S11307306795B795F7959E3F08F0B3CF9395880FCB
S113074008F09927EE0F979587950895A8D008F497
S113075081E008950CD0DEC0D6D040F0CDD030F08A
S113076021F45F3F19F0BFC0511108C1C2C0E3D0EA
S113077098F39923C9F35523B1F3951B550BBB2764
S1130780AA2762177307840738F09F5F5F4F220F11
S1130790331F441FAA1FA9F333D00E2E3AF0E0E80A
S11307A030D091505040E695001CCAF729D0FE2F56
S11307B027D0660F771F881FBB1F261737074807E8
S11307C0AB07B0E809F0BB0B802DBF01FF2793589E
S11307D05F4F2AF09E3F510568F085C0CFC05F3F50
S11307E0ECF3983EDCF3869577956795B795F79586
S11307F09F5FC9F7880F911D9695879597F908957E
S1130800E1E0660F771F881FBB1F62177307840719
S1130810BA0720F0621B730B840BBA0BEE1F88F728
S1130820E0950895E89409C097FB3EF4909580956F
S1130830709561957F4F8F4F9F4F9923A9F0F92FA2
S113084096E9BB279395F695879577956795B79520
S1130850F111F8CFFAF4BB0F11F460FF1BC06F5F06
S11308607F4F8F4F9F4F16C0882311F096E911C018
S1130870772321F09EE8872F762F05C0662371F039
S113088096E8862F70E060E02AF09A95660F771F4D
S1130890881FDAF7880F9695879597F90895990F29
S11308A00008550FAA0BE0E8FEEF16161706E80736
S11308B0F907C0F012161306E407F50798F0621B57
S11308C0730B840B950B39F40A2661F0232B242B2C
S11308D0252B21F408950A2609F4A140A6958FEF4B
S11308E0811D811D089597F99F6780E870E060E09D
S11308F008959FEF80EC089500240A9416161706B5
S113090018060906089500240A94121613061406FC
S113091005060895092E0394000C11F4882352F05F
S1130920BB0F40F4BF2B11F460FF04C06F5F7F4F17
S11309308F4F9F4F089557FD9058440F551F59F0FE
S11309405F3F71F04795880F97FB991F61F09F3FB8
S113095079F087950895121613061406551FF2CFE1
S11309604695F1DF08C0161617061806991FF1CF31
S113097086957105610508940895E894BB27662758
S11309807727CB0197F908958ADF08F48FEF08954C
S11309900BD0C0CFB1DF28F0B6DF18F0952309F0F3
S11309A0A2CFA7CF1124EACFC6DFA0F3959FD1F33E
S11309B0950F50E0551F629FF001729FBB27F00D09
S11309C0B11D639FAA27F00DB11DAA1F649F66275E
S11309D0B00DA11D661F829F2227B00DA11D621FAD
S11309E0739FB00DA11D621F839FA00D611D221F67
S11309F0749F3327A00D611D231F849F600D211D4B
S1130A00822F762F6A2F11249F5750408AF0E1F0ED
S1130A1088234AF0EE0FFF1FBB1F661F771F881F36
S1130A2091505040A9F79E3F510570F05CCFA6CF7E
S1130A305F3FECF3983EDCF3869577956795B79521
S1130A40F795E7959F5FC1F7FE2B880F911D96954B
S10D0A50879597F90895F894FFCFF5
S1130A5A020002006F12833A0000B4420000B4C2DA
S1130A6A0000803F0000803F0000803F0000664392
S9030000FC
