:1000000033C000004CC000004AC0000048C00000DF
:1000100046C0000044C0000042C0000091C0000083
:10002000A4C000003CC000003AC0000038C000007E
:100030007CC0000034C0000064C0000030C000007C
:100040002EC000002CC000002AC0000028C0000004
:1000500026C0000024C0000022C0000020C0000014
:100060001EC000001CC0000011241FBECFEFD8E04E
:10007000DEBFCDBF11E0A0E0B1E0E8E8F1E002C0F2
:1000800005900D92A430B107D9F721E0A4E0B1E0CA
:1000900001C01D92A830B207E1F772D073C0B0CF93
:1000A0008AB18E678AB984B58B6284BD8091020162
:1000B0009091030187BD809106019091070188BD51
:1000C000EEE6F0E080818660808395E095BDE0EB10
:1000D000F0E080818B6280832091000130910101EA
:1000E0002093B30020910401309105012093B400C6
:1000F000E0E7F0E08081866080839093B10078949F
:1001000008951F920F920FB60F9211248F939F9311
:10011000809106019091070188BD5E9A9F918F9111
:100120000F900FBE0F901F9018951F920F920FB651
:100130000F9211245E980F900FBE0F901F9018958C
:100140001F920F920FB60F9211248F939F9380915D
:100150000401909105018093B4005D9A9F918F9165
:100160000F900FBE0F901F9018951F920F920FB611
:100170000F9211245D980F900FBE0F901F9018954D
:080180008FDFFFCFF894FFCFE1
:04018800020002006F
:00000001FF
